{
  "_format": "hh-sol-artifact-1",
  "contractName": "Counter",
  "sourceName": "contracts/counter.sol",
  "abi": [
    {
      "anonymous": false,
      "inputs": [
        {
          "indexed": false,
          "internalType": "uint256",
          "name": "newCount",
          "type": "uint256"
        }
      ],
      "name": "CountChanged",
      "type": "event"
    },
    {
      "inputs": [],
      "name": "count",
      "outputs": [
        {
          "internalType": "uint256",
          "name": "",
          "type": "uint256"
        }
      ],
      "stateMutability": "view",
      "type": "function"
    },
    {
      "inputs": [],
      "name": "decrement",
      "outputs": [],
      "stateMutability": "nonpayable",
      "type": "function"
    },
    {
      "inputs": [],
      "name": "increment",
      "outputs": [],
      "stateMutability": "nonpayable",
      "type": "function"
    }
  ],
  "bytecode": "0x6080604052348015600f57600080fd5b506102ed8061001f6000396000f3fe608060405234801561001057600080fd5b50600436106100415760003560e01c806306661abd146100465780632baeceb714610064578063d09de08a1461006e575b600080fd5b61004e610078565b60405161005b919061017f565b60405180910390f35b61006c61007e565b005b610076610114565b005b60005481565b60008054116100c2576040517f08c379a00000000000000000000000000000000000000000000000000000000081526004016100b9906101f7565b60405180910390fd5b6000808154809291906100d490610246565b91905055507f0ef4482aceb854636f33f9cd319f9e1cd6fe3aa2e60523f3583c287b8938244560005460405161010a919061017f565b60405180910390a1565b6000808154809291906101269061026f565b91905055507f0ef4482aceb854636f33f9cd319f9e1cd6fe3aa2e60523f3583c287b8938244560005460405161015c919061017f565b60405180910390a1565b6000819050919050565b61017981610166565b82525050565b60006020820190506101946000830184610170565b92915050565b600082825260208201905092915050565b7f436f756e746572206973207a65726f0000000000000000000000000000000000600082015250565b60006101e1600f8361019a565b91506101ec826101ab565b602082019050919050565b60006020820190508181036000830152610210816101d4565b9050919050565b7f4e487b7100000000000000000000000000000000000000000000000000000000600052601160045260246000fd5b600061025182610166565b91506000820361026457610263610217565b5b600182039050919050565b600061027a82610166565b91507fffffffffffffffffffffffffffffffffffffffffffffffffffffffffffffffff82036102ac576102ab610217565b5b60018201905091905056fea2646970667358221220912b927ba1886c988d4e154b051c7463ae45b6bddff2be96a3d8362f5fed5d2764736f6c634300081c0033",
  "linkReferences": {},
  "deployedLinkReferences": {}
}